{
  "abi": [
    {
      "anonymous": false,
      "inputs": [
        {
          "indexed": true,
          "internalType": "uint256",
          "name": "policyId",
          "type": "uint256"
        },
        {
          "indexed": true,
          "internalType": "address",
          "name": "holder",
          "type": "address"
        },
        {
          "indexed": false,
          "internalType": "uint256",
          "name": "amount",
          "type": "uint256"
        }
      ],
      "name": "PolicyClaimed",
      "type": "event"
    },
    {
      "anonymous": false,
      "inputs": [
        {
          "indexed": true,
          "internalType": "uint256",
          "name": "policyId",
          "type": "uint256"
        },
        {
          "indexed": true,
          "internalType": "address",
          "name": "holder",
          "type": "address"
        },
        {
          "indexed": false,
          "internalType": "uint256",
          "name": "premium",
          "type": "uint256"
        },
        {
          "indexed": false,
          "internalType": "uint256",
          "name": "coverageAmount",
          "type": "uint256"
        }
      ],
      "name": "PolicyCreated",
      "type": "event"
    },
    {
      "inputs": [
        {
          "internalType": "uint256",
          "name": "_coverageAmount",
          "type": "uint256"
        }
      ],
      "name": "createPolicy",
      "outputs": [],
      "stateMutability": "payable",
      "type": "function"
    },
    {
      "inputs": [],
      "name": "getContractBalance",
      "outputs": [
        {
          "internalType": "uint256",
          "name": "",
          "type": "uint256"
        }
      ],
      "stateMutability": "view",
      "type": "function"
    },
    {
      "inputs": [
        {
          "internalType": "uint256",
          "name": "_policyId",
          "type": "uint256"
        }
      ],
      "name": "getPolicy",
      "outputs": [
        {
          "internalType": "address",
          "name": "holder",
          "type": "address"
        },
        {
          "internalType": "uint256",
          "name": "premium",
          "type": "uint256"
        },
        {
          "internalType": "uint256",
          "name": "coverageAmount",
          "type": "uint256"
        },
        {
          "internalType": "bool",
          "name": "isActive",
          "type": "bool"
        },
        {
          "internalType": "uint256",
          "name": "createdAt",
          "type": "uint256"
        }
      ],
      "stateMutability": "view",
      "type": "function"
    },
    {
      "inputs": [],
      "name": "getTotalPolicies",
      "outputs": [
        {
          "internalType": "uint256",
          "name": "",
          "type": "uint256"
        }
      ],
      "stateMutability": "view",
      "type": "function"
    },
    {
      "inputs": [
        {
          "internalType": "uint256",
          "name": "",
          "type": "uint256"
        }
      ],
      "name": "policies",
      "outputs": [
        {
          "internalType": "address",
          "name": "holder",
          "type": "address"
        },
        {
          "internalType": "uint256",
          "name": "premium",
          "type": "uint256"
        },
        {
          "internalType": "uint256",
          "name": "coverageAmount",
          "type": "uint256"
        },
        {
          "internalType": "bool",
          "name": "isActive",
          "type": "bool"
        },
        {
          "internalType": "uint256",
          "name": "createdAt",
          "type": "uint256"
        }
      ],
      "stateMutability": "view",
      "type": "function"
    },
    {
      "inputs": [],
      "name": "policyCount",
      "outputs": [
        {
          "internalType": "uint256",
          "name": "",
          "type": "uint256"
        }
      ],
      "stateMutability": "view",
      "type": "function"
    }
  ],
  "devdoc": {
    "kind": "dev",
    "methods": {},
    "version": 1
  },
  "evm": {
    "assembly": "    /* \"SimpleMicroInsurance.sol\":60:1972  contract SimpleMicroInsurance {... */\n  mstore(0x40, 0x80)\n  callvalue\n  dup1\n  iszero\n  tag_1\n  jumpi\n  0x00\n  dup1\n  revert\ntag_1:\n  pop\n  dataSize(sub_0)\n  dup1\n  dataOffset(sub_0)\n  0x00\n  codecopy\n  0x00\n  return\nstop\n\nsub_0: assembly {\n        /* \"SimpleMicroInsurance.sol\":60:1972  contract SimpleMicroInsurance {... */\n      mstore(0x40, 0x80)\n      jumpi(tag_1, lt(calldatasize, 0x04))\n      shr(0xe0, calldataload(0x00))\n      dup1\n      0xd246dd69\n      gt\n      tag_8\n      jumpi\n      dup1\n      0xd246dd69\n      eq\n      tag_5\n      jumpi\n      dup1\n      0xd3e89483\n      eq\n      tag_6\n      jumpi\n      dup1\n      0xde54d429\n      eq\n      tag_7\n      jumpi\n      0x00\n      dup1\n      revert\n    tag_8:\n      dup1\n      0x04bd12bb\n      eq\n      tag_2\n      jumpi\n      dup1\n      0x2b07fce3\n      eq\n      tag_3\n      jumpi\n      dup1\n      0x6f9fb98a\n      eq\n      tag_4\n      jumpi\n    tag_1:\n      0x00\n      dup1\n      revert\n        /* \"SimpleMicroInsurance.sol\":598:1190  function createPolicy(uint256 _coverageAmount) external payable {... */\n    tag_2:\n      tag_9\n      tag_10\n      calldatasize\n      0x04\n      tag_11\n      jump\t// in\n    tag_10:\n      tag_12\n      jump\t// in\n    tag_9:\n      stop\n        /* \"SimpleMicroInsurance.sol\":1229:1677  function getPolicy(uint256 _policyId) external view returns (... */\n    tag_3:\n      callvalue\n      dup1\n      iszero\n      tag_13\n      jumpi\n      0x00\n      dup1\n      revert\n    tag_13:\n      pop\n      tag_14\n      tag_15\n      calldatasize\n      0x04\n      tag_11\n      jump\t// in\n    tag_15:\n        /* \"SimpleMicroInsurance.sol\":1300:1314  address holder */\n      0x00\n        /* \"SimpleMicroInsurance.sol\":1467:1486  policies[_policyId] */\n      swap1\n      dup2\n      mstore\n      0x20\n      dup2\n      dup2\n      mstore\n      0x40\n      swap2\n      dup3\n      swap1\n      keccak256\n        /* \"SimpleMicroInsurance.sol\":1444:1486  Policy memory policy = policies[_policyId] */\n      dup3\n      mload\n      0xa0\n      dup2\n      add\n      dup5\n      mstore\n      dup2\n      sload\n      sub(shl(0xa0, 0x01), 0x01)\n      and\n      dup1\n      dup3\n      mstore\n      0x01\n      dup4\n      add\n      sload\n      swap4\n      dup3\n      add\n      dup5\n      swap1\n      mstore\n      0x02\n      dup4\n      add\n      sload\n      swap5\n      dup3\n      add\n      dup6\n      swap1\n      mstore\n      0x03\n      dup4\n      add\n      sload\n      0xff\n      and\n      iszero\n      iszero\n      0x60\n      dup4\n      add\n      dup2\n      swap1\n      mstore\n      0x04\n      swap1\n      swap4\n      add\n      sload\n      0x80\n      swap1\n      swap3\n      add\n      dup3\n      swap1\n      mstore\n      swap5\n      swap3\n      swap4\n      swap3\n        /* \"SimpleMicroInsurance.sol\":1229:1677  function getPolicy(uint256 _policyId) external view returns (... */\n      jump\n    tag_14:\n      0x40\n      dup1\n      mload\n      sub(shl(0xa0, 0x01), 0x01)\n        /* \"#utility.yul\":470:525   */\n      swap1\n      swap7\n      and\n        /* \"#utility.yul\":452:526   */\n      dup7\n      mstore\n        /* \"#utility.yul\":557:559   */\n      0x20\n        /* \"#utility.yul\":542:560   */\n      dup7\n      add\n        /* \"#utility.yul\":535:569   */\n      swap5\n      swap1\n      swap5\n      mstore\n        /* \"#utility.yul\":585:603   */\n      swap3\n      dup5\n      add\n        /* \"#utility.yul\":578:612   */\n      swap2\n      swap1\n      swap2\n      mstore\n        /* \"#utility.yul\":655:669   */\n      iszero\n        /* \"#utility.yul\":648:670   */\n      iszero\n        /* \"#utility.yul\":643:645   */\n      0x60\n        /* \"#utility.yul\":628:646   */\n      dup4\n      add\n        /* \"#utility.yul\":621:671   */\n      mstore\n        /* \"#utility.yul\":702:705   */\n      0x80\n        /* \"#utility.yul\":687:706   */\n      dup3\n      add\n        /* \"#utility.yul\":680:715   */\n      mstore\n        /* \"#utility.yul\":439:442   */\n      0xa0\n        /* \"#utility.yul\":424:443   */\n      add\n        /* \"SimpleMicroInsurance.sol\":1229:1677  function getPolicy(uint256 _policyId) external view returns (... */\n    tag_17:\n      mload(0x40)\n      dup1\n      swap2\n      sub\n      swap1\n      return\n        /* \"SimpleMicroInsurance.sol\":1860:1969  function getContractBalance() external view returns (uint256) {... */\n    tag_4:\n      callvalue\n      dup1\n      iszero\n      tag_19\n      jumpi\n      0x00\n      dup1\n      revert\n    tag_19:\n      pop\n        /* \"SimpleMicroInsurance.sol\":1940:1961  address(this).balance */\n      selfbalance\n        /* \"SimpleMicroInsurance.sol\":1860:1969  function getContractBalance() external view returns (uint256) {... */\n    tag_20:\n      mload(0x40)\n        /* \"#utility.yul\":872:897   */\n      swap1\n      dup2\n      mstore\n        /* \"#utility.yul\":860:862   */\n      0x20\n        /* \"#utility.yul\":845:863   */\n      add\n        /* \"SimpleMicroInsurance.sol\":1860:1969  function getContractBalance() external view returns (uint256) {... */\n      tag_17\n        /* \"#utility.yul\":726:903   */\n      jump\n        /* \"SimpleMicroInsurance.sol\":1722:1819  function getTotalPolicies() external view returns (uint256) {... */\n    tag_5:\n      callvalue\n      dup1\n      iszero\n      tag_24\n      jumpi\n      0x00\n      dup1\n      revert\n    tag_24:\n      pop\n        /* \"SimpleMicroInsurance.sol\":1800:1811  policyCount */\n      sload(0x01)\n        /* \"SimpleMicroInsurance.sol\":1722:1819  function getTotalPolicies() external view returns (uint256) {... */\n      jump(tag_20)\n        /* \"SimpleMicroInsurance.sol\":267:309  mapping(uint256 => Policy) public policies */\n    tag_6:\n      callvalue\n      dup1\n      iszero\n      tag_28\n      jumpi\n      0x00\n      dup1\n      revert\n    tag_28:\n      pop\n      tag_14\n      tag_30\n      calldatasize\n      0x04\n      tag_11\n      jump\t// in\n    tag_30:\n      0x00\n      0x20\n      dup2\n      swap1\n      mstore\n      swap1\n      dup2\n      mstore\n      0x40\n      swap1\n      keccak256\n      dup1\n      sload\n      0x01\n      dup3\n      add\n      sload\n      0x02\n      dup4\n      add\n      sload\n      0x03\n      dup5\n      add\n      sload\n      0x04\n      swap1\n      swap5\n      add\n      sload\n      sub(shl(0xa0, 0x01), 0x01)\n      swap1\n      swap4\n      and\n      swap4\n      swap2\n      swap3\n      swap1\n      swap2\n      0xff\n      and\n      swap1\n      dup6\n      jump\n        /* \"SimpleMicroInsurance.sol\":316:342  uint256 public policyCount */\n    tag_7:\n      callvalue\n      dup1\n      iszero\n      tag_33\n      jumpi\n      0x00\n      dup1\n      revert\n    tag_33:\n      pop\n      tag_20\n      sload(0x01)\n      dup2\n      jump\n        /* \"SimpleMicroInsurance.sol\":598:1190  function createPolicy(uint256 _coverageAmount) external payable {... */\n    tag_12:\n        /* \"SimpleMicroInsurance.sol\":693:694  0 */\n      0x00\n        /* \"SimpleMicroInsurance.sol\":681:690  msg.value */\n      callvalue\n        /* \"SimpleMicroInsurance.sol\":681:694  msg.value > 0 */\n      gt\n        /* \"SimpleMicroInsurance.sol\":673:729  require(msg.value > 0, \"Premium must be greater than 0\") */\n      tag_38\n      jumpi\n      mload(0x40)\n      shl(0xe5, 0x461bcd)\n      dup2\n      mstore\n        /* \"#utility.yul\":1110:1112   */\n      0x20\n        /* \"SimpleMicroInsurance.sol\":673:729  require(msg.value > 0, \"Premium must be greater than 0\") */\n      0x04\n      dup3\n      add\n        /* \"#utility.yul\":1092:1113   */\n      mstore\n        /* \"#utility.yul\":1149:1151   */\n      0x1e\n        /* \"#utility.yul\":1129:1147   */\n      0x24\n      dup3\n      add\n        /* \"#utility.yul\":1122:1152   */\n      mstore\n        /* \"#utility.yul\":1188:1220   */\n      0x5072656d69756d206d7573742062652067726561746572207468616e20300000\n        /* \"#utility.yul\":1168:1186   */\n      0x44\n      dup3\n      add\n        /* \"#utility.yul\":1161:1221   */\n      mstore\n        /* \"#utility.yul\":1238:1256   */\n      0x64\n      add\n        /* \"SimpleMicroInsurance.sol\":673:729  require(msg.value > 0, \"Premium must be greater than 0\") */\n    tag_39:\n      mload(0x40)\n      dup1\n      swap2\n      sub\n      swap1\n      revert\n    tag_38:\n        /* \"SimpleMicroInsurance.sol\":766:767  0 */\n      0x00\n        /* \"SimpleMicroInsurance.sol\":748:763  _coverageAmount */\n      dup2\n        /* \"SimpleMicroInsurance.sol\":748:767  _coverageAmount > 0 */\n      gt\n        /* \"SimpleMicroInsurance.sol\":740:810  require(_coverageAmount > 0, \"Coverage amount must be greater than 0\") */\n      tag_41\n      jumpi\n      mload(0x40)\n      shl(0xe5, 0x461bcd)\n      dup2\n      mstore\n        /* \"#utility.yul\":1469:1471   */\n      0x20\n        /* \"SimpleMicroInsurance.sol\":740:810  require(_coverageAmount > 0, \"Coverage amount must be greater than 0\") */\n      0x04\n      dup3\n      add\n        /* \"#utility.yul\":1451:1472   */\n      mstore\n        /* \"#utility.yul\":1508:1510   */\n      0x26\n        /* \"#utility.yul\":1488:1506   */\n      0x24\n      dup3\n      add\n        /* \"#utility.yul\":1481:1511   */\n      mstore\n        /* \"#utility.yul\":1547:1581   */\n      0x436f76657261676520616d6f756e74206d757374206265206772656174657220\n        /* \"#utility.yul\":1527:1545   */\n      0x44\n      dup3\n      add\n        /* \"#utility.yul\":1520:1582   */\n      mstore\n        /* \"#utility.yul\":1618:1626   */\n      0x7468616e20300000000000000000000000000000000000000000000000000000\n        /* \"#utility.yul\":1598:1616   */\n      0x64\n      dup3\n      add\n        /* \"#utility.yul\":1591:1627   */\n      mstore\n        /* \"#utility.yul\":1644:1663   */\n      0x84\n      add\n        /* \"SimpleMicroInsurance.sol\":740:810  require(_coverageAmount > 0, \"Coverage amount must be greater than 0\") */\n      tag_39\n        /* \"#utility.yul\":1267:1669   */\n      jump\n        /* \"SimpleMicroInsurance.sol\":740:810  require(_coverageAmount > 0, \"Coverage amount must be greater than 0\") */\n    tag_41:\n        /* \"SimpleMicroInsurance.sol\":831:842  policyCount */\n      0x01\n        /* \"SimpleMicroInsurance.sol\":831:844  policyCount++ */\n      dup1\n      sload\n      swap1\n        /* \"SimpleMicroInsurance.sol\":831:842  policyCount */\n      0x00\n        /* \"SimpleMicroInsurance.sol\":831:844  policyCount++ */\n      tag_44\n      dup4\n      tag_45\n      jump\t// in\n    tag_44:\n      swap1\n      swap2\n      sstore\n      pop\n      pop\n        /* \"SimpleMicroInsurance.sol\":889:1090  Policy({... */\n      0x40\n      dup1\n      mload\n      0xa0\n      dup2\n      add\n      dup3\n      mstore\n        /* \"SimpleMicroInsurance.sol\":919:929  msg.sender */\n      caller\n        /* \"SimpleMicroInsurance.sol\":889:1090  Policy({... */\n      dup1\n      dup3\n      mstore\n        /* \"SimpleMicroInsurance.sol\":953:962  msg.value */\n      callvalue\n        /* \"SimpleMicroInsurance.sol\":889:1090  Policy({... */\n      0x20\n      dup1\n      dup5\n      add\n      dup3\n      dup2\n      mstore\n      dup5\n      dup7\n      add\n      dup8\n      dup2\n      mstore\n        /* \"SimpleMicroInsurance.sol\":1033:1037  true */\n      0x01\n        /* \"SimpleMicroInsurance.sol\":889:1090  Policy({... */\n      0x60\n      dup8\n      add\n      dup2\n      dup2\n      mstore\n        /* \"SimpleMicroInsurance.sol\":1063:1078  block.timestamp */\n      timestamp\n        /* \"SimpleMicroInsurance.sol\":889:1090  Policy({... */\n      0x80\n      dup10\n      add\n      swap1\n      dup2\n      mstore\n        /* \"SimpleMicroInsurance.sol\":874:885  policyCount */\n      dup3\n      sload\n      0x00\n        /* \"SimpleMicroInsurance.sol\":865:886  policies[policyCount] */\n      swap1\n      dup2\n      mstore\n      dup1\n      dup8\n      mstore\n      dup11\n      swap1\n      keccak256\n        /* \"SimpleMicroInsurance.sol\":865:1090  policies[policyCount] = Policy({... */\n      swap9\n      mload\n      dup10\n      sload\n      0xffffffffffffffffffffffff0000000000000000000000000000000000000000\n      and\n      sub(shl(0xa0, 0x01), 0x01)\n      swap1\n      swap2\n      and\n      or\n      dup10\n      sstore\n      swap4\n      mload\n      dup9\n      dup4\n      add\n      sstore\n      swap2\n      mload\n      0x02\n      dup9\n      add\n      sstore\n      swap1\n      mload\n      0x03\n      dup8\n      add\n      dup1\n      sload\n      not(0xff)\n      and\n      swap2\n      iszero\n      iszero\n      swap2\n      swap1\n      swap2\n      or\n      swap1\n      sstore\n      swap1\n      mload\n      0x04\n      swap1\n      swap6\n      add\n      swap5\n      swap1\n      swap5\n      sstore\n        /* \"SimpleMicroInsurance.sol\":1130:1141  policyCount */\n      swap3\n      sload\n        /* \"SimpleMicroInsurance.sol\":1116:1182  PolicyCreated(policyCount, msg.sender, msg.value, _coverageAmount) */\n      dup5\n      mload\n        /* \"#utility.yul\":2085:2110   */\n      swap2\n      dup3\n      mstore\n        /* \"#utility.yul\":2126:2144   */\n      swap3\n      dup2\n      add\n        /* \"#utility.yul\":2119:2153   */\n      dup6\n      swap1\n      mstore\n        /* \"SimpleMicroInsurance.sol\":919:929  msg.sender */\n      swap1\n      swap3\n        /* \"SimpleMicroInsurance.sol\":1116:1182  PolicyCreated(policyCount, msg.sender, msg.value, _coverageAmount) */\n      0xf407f724dd5d2b7754fcbc405960f07c8da0a85e7f71948913fb2997e77bfc86\n      swap2\n        /* \"#utility.yul\":2058:2076   */\n      add\n        /* \"SimpleMicroInsurance.sol\":1116:1182  PolicyCreated(policyCount, msg.sender, msg.value, _coverageAmount) */\n      mload(0x40)\n      dup1\n      swap2\n      sub\n      swap1\n      log3\n        /* \"SimpleMicroInsurance.sol\":598:1190  function createPolicy(uint256 _coverageAmount) external payable {... */\n      pop\n      jump\t// out\n        /* \"#utility.yul\":14:194   */\n    tag_11:\n        /* \"#utility.yul\":73:79   */\n      0x00\n        /* \"#utility.yul\":126:128   */\n      0x20\n        /* \"#utility.yul\":114:123   */\n      dup3\n        /* \"#utility.yul\":105:112   */\n      dup5\n        /* \"#utility.yul\":101:124   */\n      sub\n        /* \"#utility.yul\":97:129   */\n      slt\n        /* \"#utility.yul\":94:146   */\n      iszero\n      tag_53\n      jumpi\n        /* \"#utility.yul\":142:143   */\n      0x00\n        /* \"#utility.yul\":139:140   */\n      dup1\n        /* \"#utility.yul\":132:144   */\n      revert\n        /* \"#utility.yul\":94:146   */\n    tag_53:\n      pop\n        /* \"#utility.yul\":165:188   */\n      calldataload\n      swap2\n        /* \"#utility.yul\":14:194   */\n      swap1\n      pop\n      jump\t// out\n        /* \"#utility.yul\":1674:1906   */\n    tag_45:\n        /* \"#utility.yul\":1713:1716   */\n      0x00\n        /* \"#utility.yul\":1734:1751   */\n      0x01\n      dup3\n      add\n        /* \"#utility.yul\":1731:1871   */\n      tag_59\n      jumpi\n        /* \"#utility.yul\":1793:1803   */\n      0x4e487b71\n        /* \"#utility.yul\":1788:1791   */\n      0xe0\n        /* \"#utility.yul\":1784:1804   */\n      shl\n        /* \"#utility.yul\":1781:1782   */\n      0x00\n        /* \"#utility.yul\":1774:1805   */\n      mstore\n        /* \"#utility.yul\":1828:1832   */\n      0x11\n        /* \"#utility.yul\":1825:1826   */\n      0x04\n        /* \"#utility.yul\":1818:1833   */\n      mstore\n        /* \"#utility.yul\":1856:1860   */\n      0x24\n        /* \"#utility.yul\":1853:1854   */\n      0x00\n        /* \"#utility.yul\":1846:1861   */\n      revert\n        /* \"#utility.yul\":1731:1871   */\n    tag_59:\n      pop\n        /* \"#utility.yul\":1898:1899   */\n      0x01\n        /* \"#utility.yul\":1887:1900   */\n      add\n      swap1\n        /* \"#utility.yul\":1674:1906   */\n      jump\t// out\n\n    auxdata: 0xa2646970667358221220de65a3eddbd1824d5a58cc2859053e35fac75ecd52072d596d6114627dc6a3cc64736f6c63430008190033\n}\n",
    "bytecode": {
      "linkReferences": {},
      "object": "6080604052348015600e575f80fd5b506103ef8061001c5f395ff3fe608060405260043610610063575f3560e01c8063d246dd6911610041578063d246dd691461014b578063d3e894831461015f578063de54d429146101b4575f80fd5b806304bd12bb146100675780632b07fce31461007c5780636f9fb98a1461012f575b5f80fd5b61007a61007536600461037e565b6101c9565b005b348015610087575f80fd5b506100f661009636600461037e565b5f9081526020818152604091829020825160a08101845281546001600160a01b031680825260018301549382018490526002830154948201859052600383015460ff16151560608301819052600490930154608090920182905294929392565b604080516001600160a01b03909616865260208601949094529284019190915215156060830152608082015260a0015b60405180910390f35b34801561013a575f80fd5b50475b604051908152602001610126565b348015610156575f80fd5b5060015461013d565b34801561016a575f80fd5b506100f661017936600461037e565b5f60208190529081526040902080546001820154600283015460038401546004909401546001600160a01b03909316939192909160ff169085565b3480156101bf575f80fd5b5061013d60015481565b5f341161021d5760405162461bcd60e51b815260206004820152601e60248201527f5072656d69756d206d7573742062652067726561746572207468616e2030000060448201526064015b60405180910390fd5b5f81116102925760405162461bcd60e51b815260206004820152602660248201527f436f76657261676520616d6f756e74206d75737420626520677265617465722060448201527f7468616e203000000000000000000000000000000000000000000000000000006064820152608401610214565b60018054905f6102a183610395565b90915550506040805160a08101825233808252346020808401828152848601878152600160608701818152426080890190815282545f9081528087528a9020985189547fffffffffffffffffffffffff0000000000000000000000000000000000000000166001600160a01b0390911617895593518883015591516002880155905160038701805460ff191691151591909117905590516004909501949094559254845191825292810185905290927ff407f724dd5d2b7754fcbc405960f07c8da0a85e7f71948913fb2997e77bfc86910160405180910390a350565b5f6020828403121561038e575f80fd5b5035919050565b5f600182016103b257634e487b7160e01b5f52601160045260245ffd5b506001019056fea2646970667358221220de65a3eddbd1824d5a58cc2859053e35fac75ecd52072d596d6114627dc6a3cc64736f6c63430008190033",
      "opcodes": "PUSH1 0x80 PUSH1 0x40 MSTORE CALLVALUE DUP1 ISZERO PUSH1 0xE JUMPI PUSH0 DUP1 REVERT JUMPDEST POP PUSH2 0x3EF DUP1 PUSH2 0x1C PUSH0 CODECOPY PUSH0 RETURN INVALID PUSH1 0x80 PUSH1 0x40 MSTORE PUSH1 0x4 CALLDATASIZE LT PUSH2 0x63 JUMPI PUSH0 CALLDATALOAD PUSH1 0xE0 SHR DUP1 PUSH4 0xD246DD69 GT PUSH2 0x41 JUMPI DUP1 PUSH4 0xD246DD69 EQ PUSH2 0x14B JUMPI DUP1 PUSH4 0xD3E89483 EQ PUSH2 0x15F JUMPI DUP1 PUSH4 0xDE54D429 EQ PUSH2 0x1B4 JUMPI PUSH0 DUP1 REVERT JUMPDEST DUP1 PUSH4 0x4BD12BB EQ PUSH2 0x67 JUMPI DUP1 PUSH4 0x2B07FCE3 EQ PUSH2 0x7C JUMPI DUP1 PUSH4 0x6F9FB98A EQ PUSH2 0x12F JUMPI JUMPDEST PUSH0 DUP1 REVERT JUMPDEST PUSH2 0x7A PUSH2 0x75 CALLDATASIZE PUSH1 0x4 PUSH2 0x37E JUMP JUMPDEST PUSH2 0x1C9 JUMP JUMPDEST STOP JUMPDEST CALLVALUE DUP1 ISZERO PUSH2 0x87 JUMPI PUSH0 DUP1 REVERT JUMPDEST POP PUSH2 0xF6 PUSH2 0x96 CALLDATASIZE PUSH1 0x4 PUSH2 0x37E JUMP JUMPDEST PUSH0 SWAP1 DUP2 MSTORE PUSH1 0x20 DUP2 DUP2 MSTORE PUSH1 0x40 SWAP2 DUP3 SWAP1 KECCAK256 DUP3 MLOAD PUSH1 0xA0 DUP2 ADD DUP5 MSTORE DUP2 SLOAD PUSH1 0x1 PUSH1 0x1 PUSH1 0xA0 SHL SUB AND DUP1 DUP3 MSTORE PUSH1 0x1 DUP4 ADD SLOAD SWAP4 DUP3 ADD DUP5 SWAP1 MSTORE PUSH1 0x2 DUP4 ADD SLOAD SWAP5 DUP3 ADD DUP6 SWAP1 MSTORE PUSH1 0x3 DUP4 ADD SLOAD PUSH1 0xFF AND ISZERO ISZERO PUSH1 0x60 DUP4 ADD DUP2 SWAP1 MSTORE PUSH1 0x4 SWAP1 SWAP4 ADD SLOAD PUSH1 0x80 SWAP1 SWAP3 ADD DUP3 SWAP1 MSTORE SWAP5 SWAP3 SWAP4 SWAP3 JUMP JUMPDEST PUSH1 0x40 DUP1 MLOAD PUSH1 0x1 PUSH1 0x1 PUSH1 0xA0 SHL SUB SWAP1 SWAP7 AND DUP7 MSTORE PUSH1 0x20 DUP7 ADD SWAP5 SWAP1 SWAP5 MSTORE SWAP3 DUP5 ADD SWAP2 SWAP1 SWAP2 MSTORE ISZERO ISZERO PUSH1 0x60 DUP4 ADD MSTORE PUSH1 0x80 DUP3 ADD MSTORE PUSH1 0xA0 ADD JUMPDEST PUSH1 0x40 MLOAD DUP1 SWAP2 SUB SWAP1 RETURN JUMPDEST CALLVALUE DUP1 ISZERO PUSH2 0x13A JUMPI PUSH0 DUP1 REVERT JUMPDEST POP SELFBALANCE JUMPDEST PUSH1 0x40 MLOAD SWAP1 DUP2 MSTORE PUSH1 0x20 ADD PUSH2 0x126 JUMP JUMPDEST CALLVALUE DUP1 ISZERO PUSH2 0x156 JUMPI PUSH0 DUP1 REVERT JUMPDEST POP PUSH1 0x1 SLOAD PUSH2 0x13D JUMP JUMPDEST CALLVALUE DUP1 ISZERO PUSH2 0x16A JUMPI PUSH0 DUP1 REVERT JUMPDEST POP PUSH2 0xF6 PUSH2 0x179 CALLDATASIZE PUSH1 0x4 PUSH2 0x37E JUMP JUMPDEST PUSH0 PUSH1 0x20 DUP2 SWAP1 MSTORE SWAP1 DUP2 MSTORE PUSH1 0x40 SWAP1 KECCAK256 DUP1 SLOAD PUSH1 0x1 DUP3 ADD SLOAD PUSH1 0x2 DUP4 ADD SLOAD PUSH1 0x3 DUP5 ADD SLOAD PUSH1 0x4 SWAP1 SWAP5 ADD SLOAD PUSH1 0x1 PUSH1 0x1 PUSH1 0xA0 SHL SUB SWAP1 SWAP4 AND SWAP4 SWAP2 SWAP3 SWAP1 SWAP2 PUSH1 0xFF AND SWAP1 DUP6 JUMP JUMPDEST CALLVALUE DUP1 ISZERO PUSH2 0x1BF JUMPI PUSH0 DUP1 REVERT JUMPDEST POP PUSH2 0x13D PUSH1 0x1 SLOAD DUP2 JUMP JUMPDEST PUSH0 CALLVALUE GT PUSH2 0x21D JUMPI PUSH1 0x40 MLOAD PUSH3 0x461BCD PUSH1 0xE5 SHL DUP2 MSTORE PUSH1 0x20 PUSH1 0x4 DUP3 ADD MSTORE PUSH1 0x1E PUSH1 0x24 DUP3 ADD MSTORE PUSH32 0x5072656D69756D206D7573742062652067726561746572207468616E20300000 PUSH1 0x44 DUP3 ADD MSTORE PUSH1 0x64 ADD JUMPDEST PUSH1 0x40 MLOAD DUP1 SWAP2 SUB SWAP1 REVERT JUMPDEST PUSH0 DUP2 GT PUSH2 0x292 JUMPI PUSH1 0x40 MLOAD PUSH3 0x461BCD PUSH1 0xE5 SHL DUP2 MSTORE PUSH1 0x20 PUSH1 0x4 DUP3 ADD MSTORE PUSH1 0x26 PUSH1 0x24 DUP3 ADD MSTORE PUSH32 0x436F76657261676520616D6F756E74206D757374206265206772656174657220 PUSH1 0x44 DUP3 ADD MSTORE PUSH32 0x7468616E20300000000000000000000000000000000000000000000000000000 PUSH1 0x64 DUP3 ADD MSTORE PUSH1 0x84 ADD PUSH2 0x214 JUMP JUMPDEST PUSH1 0x1 DUP1 SLOAD SWAP1 PUSH0 PUSH2 0x2A1 DUP4 PUSH2 0x395 JUMP JUMPDEST SWAP1 SWAP2 SSTORE POP POP PUSH1 0x40 DUP1 MLOAD PUSH1 0xA0 DUP2 ADD DUP3 MSTORE CALLER DUP1 DUP3 MSTORE CALLVALUE PUSH1 0x20 DUP1 DUP5 ADD DUP3 DUP2 MSTORE DUP5 DUP7 ADD DUP8 DUP2 MSTORE PUSH1 0x1 PUSH1 0x60 DUP8 ADD DUP2 DUP2 MSTORE TIMESTAMP PUSH1 0x80 DUP10 ADD SWAP1 DUP2 MSTORE DUP3 SLOAD PUSH0 SWAP1 DUP2 MSTORE DUP1 DUP8 MSTORE DUP11 SWAP1 KECCAK256 SWAP9 MLOAD DUP10 SLOAD PUSH32 0xFFFFFFFFFFFFFFFFFFFFFFFF0000000000000000000000000000000000000000 AND PUSH1 0x1 PUSH1 0x1 PUSH1 0xA0 SHL SUB SWAP1 SWAP2 AND OR DUP10 SSTORE SWAP4 MLOAD DUP9 DUP4 ADD SSTORE SWAP2 MLOAD PUSH1 0x2 DUP9 ADD SSTORE SWAP1 MLOAD PUSH1 0x3 DUP8 ADD DUP1 SLOAD PUSH1 0xFF NOT AND SWAP2 ISZERO ISZERO SWAP2 SWAP1 SWAP2 OR SWAP1 SSTORE SWAP1 MLOAD PUSH1 0x4 SWAP1 SWAP6 ADD SWAP5 SWAP1 SWAP5 SSTORE SWAP3 SLOAD DUP5 MLOAD SWAP2 DUP3 MSTORE SWAP3 DUP2 ADD DUP6 SWAP1 MSTORE SWAP1 SWAP3 PUSH32 0xF407F724DD5D2B7754FCBC405960F07C8DA0A85E7F71948913FB2997E77BFC86 SWAP2 ADD PUSH1 0x40 MLOAD DUP1 SWAP2 SUB SWAP1 LOG3 POP JUMP JUMPDEST PUSH0 PUSH1 0x20 DUP3 DUP5 SUB SLT ISZERO PUSH2 0x38E JUMPI PUSH0 DUP1 REVERT JUMPDEST POP CALLDATALOAD SWAP2 SWAP1 POP JUMP JUMPDEST PUSH0 PUSH1 0x1 DUP3 ADD PUSH2 0x3B2 JUMPI PUSH4 0x4E487B71 PUSH1 0xE0 SHL PUSH0 MSTORE PUSH1 0x11 PUSH1 0x4 MSTORE PUSH1 0x24 PUSH0 REVERT JUMPDEST POP PUSH1 0x1 ADD SWAP1 JUMP INVALID LOG2 PUSH5 0x6970667358 0x22 SLT KECCAK256 0xDE PUSH6 0xA3EDDBD1824D GAS PC 0xCC 0x28 MSIZE SDIV RETURNDATACOPY CALLDATALOAD STATICCALL 0xC7 MCOPY 0xCD MSTORE SMOD 0x2D MSIZE PUSH14 0x6114627DC6A3CC64736F6C634300 ADDMOD NOT STOP CALLER "
    },
    "gasEstimates": {
      "creation": {
        "codeDepositCost": "201400",
        "executionCost": "243",
        "totalCost": "201643"
      },
      "external": {
        "createPolicy(uint256)": "145871",
        "getContractBalance()": "227",
        "getPolicy(uint256)": "11165",
        "getTotalPolicies()": "2291",
        "policies(uint256)": "11047",
        "policyCount()": "2338"
      }
    },
    "methodIdentifiers": {
      "createPolicy(uint256)": "04bd12bb",
      "getContractBalance()": "6f9fb98a",
      "getPolicy(uint256)": "2b07fce3",
      "getTotalPolicies()": "d246dd69",
      "policies(uint256)": "d3e89483",
      "policyCount()": "de54d429"
    }
  },
  "storageLayout": {
    "storage": [
      {
        "astId": 17,
        "contract": "SimpleMicroInsurance.sol:SimpleMicroInsurance",
        "label": "policies",
        "offset": 0,
        "slot": "0",
        "type": "t_mapping(t_uint256,t_struct(Policy)12_storage)"
      },
      {
        "astId": 19,
        "contract": "SimpleMicroInsurance.sol:SimpleMicroInsurance",
        "label": "policyCount",
        "offset": 0,
        "slot": "1",
        "type": "t_uint256"
      }
    ],
    "types": {
      "t_address": {
        "encoding": "inplace",
        "label": "address",
        "numberOfBytes": "20"
      },
      "t_bool": {
        "encoding": "inplace",
        "label": "bool",
        "numberOfBytes": "1"
      },
      "t_mapping(t_uint256,t_struct(Policy)12_storage)": {
        "encoding": "mapping",
        "key": "t_uint256",
        "label": "mapping(uint256 => struct SimpleMicroInsurance.Policy)",
        "numberOfBytes": "32",
        "value": "t_struct(Policy)12_storage"
      },
      "t_struct(Policy)12_storage": {
        "encoding": "inplace",
        "label": "struct SimpleMicroInsurance.Policy",
        "members": [
          {
            "astId": 3,
            "contract": "SimpleMicroInsurance.sol:SimpleMicroInsurance",
            "label": "holder",
            "offset": 0,
            "slot": "0",
            "type": "t_address"
          },
          {
            "astId": 5,
            "contract": "SimpleMicroInsurance.sol:SimpleMicroInsurance",
            "label": "premium",
            "offset": 0,
            "slot": "1",
            "type": "t_uint256"
          },
          {
            "astId": 7,
            "contract": "SimpleMicroInsurance.sol:SimpleMicroInsurance",
            "label": "coverageAmount",
            "offset": 0,
            "slot": "2",
            "type": "t_uint256"
          },
          {
            "astId": 9,
            "contract": "SimpleMicroInsurance.sol:SimpleMicroInsurance",
            "label": "isActive",
            "offset": 0,
            "slot": "3",
            "type": "t_bool"
          },
          {
            "astId": 11,
            "contract": "SimpleMicroInsurance.sol:SimpleMicroInsurance",
            "label": "createdAt",
            "offset": 0,
            "slot": "4",
            "type": "t_uint256"
          }
        ],
        "numberOfBytes": "160"
      },
      "t_uint256": {
        "encoding": "inplace",
        "label": "uint256",
        "numberOfBytes": "32"
      }
    }
  },
  "userdoc": {
    "kind": "user",
    "methods": {},
    "version": 1
  }
}